{"abi":[{"type":"constructor","inputs":[{"name":"name","type":"string","internalType":"string"},{"name":"symbol","type":"string","internalType":"string"}],"stateMutability":"nonpayable"},{"type":"receive","stateMutability":"payable"},{"type":"function","name":"ALLOCATION_CHECK_STAKE","inputs":[],"outputs":[{"name":"","type":"uint256","internalType":"uint256"}],"stateMutability":"view"},{"type":"function","name":"MAX_SUPPLY","inputs":[],"outputs":[{"name":"","type":"uint256","internalType":"uint256"}],"stateMutability":"view"},{"type":"function","name":"PACKAGE_NAME","inputs":[],"outputs":[{"name":"","type":"string","internalType":"string"}],"stateMutability":"view"},{"type":"function","name":"PACKAGE_VERSION","inputs":[],"outputs":[{"name":"","type":"string","internalType":"string"}],"stateMutability":"view"},{"type":"function","name":"activeMintChecks","inputs":[{"name":"","type":"address","internalType":"address"}],"outputs":[{"name":"","type":"uint256","internalType":"uint256"}],"stateMutability":"view"},{"type":"function","name":"allowance","inputs":[{"name":"owner","type":"address","internalType":"address"},{"name":"spender","type":"address","internalType":"address"}],"outputs":[{"name":"","type":"uint256","internalType":"uint256"}],"stateMutability":"view"},{"type":"function","name":"approve","inputs":[{"name":"spender","type":"address","internalType":"address"},{"name":"value","type":"uint256","internalType":"uint256"}],"outputs":[{"name":"","type":"bool","internalType":"bool"}],"stateMutability":"nonpayable"},{"type":"function","name":"balanceOf","inputs":[{"name":"account","type":"address","internalType":"address"}],"outputs":[{"name":"","type":"uint256","internalType":"uint256"}],"stateMutability":"view"},{"type":"function","name":"decimals","inputs":[],"outputs":[{"name":"","type":"uint8","internalType":"uint8"}],"stateMutability":"view"},{"type":"function","name":"emergencyWithdraw","inputs":[],"outputs":[],"stateMutability":"nonpayable"},{"type":"function","name":"getMintStatus","inputs":[{"name":"user","type":"address","internalType":"address"}],"outputs":[{"name":"hasActiveMintCheck","type":"bool","internalType":"bool"},{"name":"activeTaskId","type":"uint256","internalType":"uint256"},{"name":"alreadyMinted","type":"uint256","internalType":"uint256"}],"stateMutability":"view"},{"type":"function","name":"getUserMinted","inputs":[{"name":"user","type":"address","internalType":"address"}],"outputs":[{"name":"","type":"uint256","internalType":"uint256"}],"stateMutability":"view"},{"type":"function","name":"mint","inputs":[],"outputs":[],"stateMutability":"nonpayable"},{"type":"function","name":"minted","inputs":[{"name":"","type":"address","internalType":"address"}],"outputs":[{"name":"","type":"uint256","internalType":"uint256"}],"stateMutability":"view"},{"type":"function","name":"name","inputs":[],"outputs":[{"name":"","type":"string","internalType":"string"}],"stateMutability":"view"},{"type":"function","name":"onNavsError","inputs":[{"name":"taskId","type":"uint256","internalType":"uint256"},{"name":"functionName","type":"string","internalType":"string"},{"name":"error","type":"string","internalType":"string"}],"outputs":[],"stateMutability":"nonpayable"},{"type":"function","name":"onNavsResult","inputs":[{"name":"taskId","type":"uint256","internalType":"uint256"},{"name":"functionName","type":"string","internalType":"string"},{"name":"result","type":"bytes","internalType":"bytes"}],"outputs":[],"stateMutability":"nonpayable"},{"type":"function","name":"pendingMints","inputs":[{"name":"","type":"uint256","internalType":"uint256"}],"outputs":[{"name":"to","type":"address","internalType":"address"}],"stateMutability":"view"},{"type":"function","name":"symbol","inputs":[],"outputs":[{"name":"","type":"string","internalType":"string"}],"stateMutability":"view"},{"type":"function","name":"totalSupply","inputs":[],"outputs":[{"name":"","type":"uint256","internalType":"uint256"}],"stateMutability":"view"},{"type":"function","name":"transfer","inputs":[{"name":"to","type":"address","internalType":"address"},{"name":"value","type":"uint256","internalType":"uint256"}],"outputs":[{"name":"","type":"bool","internalType":"bool"}],"stateMutability":"nonpayable"},{"type":"function","name":"transferFrom","inputs":[{"name":"from","type":"address","internalType":"address"},{"name":"to","type":"address","internalType":"address"},{"name":"value","type":"uint256","internalType":"uint256"}],"outputs":[{"name":"","type":"bool","internalType":"bool"}],"stateMutability":"nonpayable"},{"type":"event","name":"Approval","inputs":[{"name":"owner","type":"address","indexed":true,"internalType":"address"},{"name":"spender","type":"address","indexed":true,"internalType":"address"},{"name":"value","type":"uint256","indexed":false,"internalType":"uint256"}],"anonymous":false},{"type":"event","name":"MintApproved","inputs":[{"name":"user","type":"address","indexed":true,"internalType":"address"},{"name":"amount","type":"uint256","indexed":false,"internalType":"uint256"}],"anonymous":false},{"type":"event","name":"MintRejected","inputs":[{"name":"user","type":"address","indexed":true,"internalType":"address"},{"name":"reason","type":"string","indexed":false,"internalType":"string"}],"anonymous":false},{"type":"event","name":"MintRequested","inputs":[{"name":"user","type":"address","indexed":true,"internalType":"address"},{"name":"taskId","type":"uint256","indexed":true,"internalType":"uint256"}],"anonymous":false},{"type":"event","name":"Transfer","inputs":[{"name":"from","type":"address","indexed":true,"internalType":"address"},{"name":"to","type":"address","indexed":true,"internalType":"address"},{"name":"value","type":"uint256","indexed":false,"internalType":"uint256"}],"anonymous":false},{"type":"error","name":"AllocationCheckInProgress","inputs":[]},{"type":"error","name":"AlreadyMinted","inputs":[]},{"type":"error","name":"ERC20InsufficientAllowance","inputs":[{"name":"spender","type":"address","internalType":"address"},{"name":"allowance","type":"uint256","internalType":"uint256"},{"name":"needed","type":"uint256","internalType":"uint256"}]},{"type":"error","name":"ERC20InsufficientBalance","inputs":[{"name":"sender","type":"address","internalType":"address"},{"name":"balance","type":"uint256","internalType":"uint256"},{"name":"needed","type":"uint256","internalType":"uint256"}]},{"type":"error","name":"ERC20InvalidApprover","inputs":[{"name":"approver","type":"address","internalType":"address"}]},{"type":"error","name":"ERC20InvalidReceiver","inputs":[{"name":"receiver","type":"address","internalType":"address"}]},{"type":"error","name":"ERC20InvalidSender","inputs":[{"name":"sender","type":"address","internalType":"address"}]},{"type":"error","name":"ERC20InvalidSpender","inputs":[{"name":"spender","type":"address","internalType":"address"}]},{"type":"error","name":"ExceedsMaxSupply","inputs":[]},{"type":"error","name":"MintNotFound","inputs":[]},{"type":"error","name":"ZeroAddress","inputs":[]}],"bytecode":{"object":"0x6080604052346103105761165a8038038061001981610314565b9283398101906040818303126103105780516001600160401b0381116103105782610045918301610339565b60208201519092906001600160401b038111610310576100659201610339565b81516001600160401b03811161022357600354600181811c91168015610306575b602082101461020557601f81116102a3575b50602092601f821160011461024257928192935f92610237575b50508160011b915f199060031b1c1916176003555b80516001600160401b03811161022357600454600181811c91168015610219575b602082101461020557601f81116101a2575b50602091601f8211600114610142579181925f92610137575b50508160011b915f199060031b1c1916176004555b6040516112cf908161038b8239f35b015190505f80610113565b601f1982169260045f52805f20915f5b85811061018a57508360019510610172575b505050811b01600455610128565b01515f1960f88460031b161c191690555f8080610164565b91926020600181928685015181550194019201610152565b60045f527f8a35acfbc15ff81a39ae7d344fd709f28e8600b4aa8c65c6b64bfe7fe36bd19b601f830160051c810191602084106101fb575b601f0160051c01905b8181106101f057506100fa565b5f81556001016101e3565b90915081906101da565b634e487b7160e01b5f52602260045260245ffd5b90607f16906100e8565b634e487b7160e01b5f52604160045260245ffd5b015190505f806100b2565b601f1982169360035f52805f20915f5b86811061028b5750836001959610610273575b505050811b016003556100c7565b01515f1960f88460031b161c191690555f8080610265565b91926020600181928685015181550194019201610252565b60035f527fc2575a0e9e593c00f959f8c92f12db2869c3395a3b0502d05e2516446f71f85b601f830160051c810191602084106102fc575b601f0160051c01905b8181106102f15750610098565b5f81556001016102e4565b90915081906102db565b90607f1690610086565b5f80fd5b6040519190601f01601f191682016001600160401b0381118382101761022357604052565b81601f82011215610310578051906001600160401b03821161022357610368601f8301601f1916602001610314565b928284526020838301011161031057815f9260208093018386015e830101529056fe608080604052600436101561001c575b50361561001a575f80fd5b005b5f3560e01c90816306fdde03146109fa57508063095ea7b3146109785780631249c58b1461071357806318160ddd146106f65780631e7269c51461039457806323b872dd146106175780632820e7d9146105f6578063313ce567146105db57806332cb6b0c146105b557806363900ca61461058357806370a082311461054c57806393c448471461050557806395d89b41146103fd578063a9059cbb146103cc578063a970909914610394578063a97ca15214610301578063caa0cc20146102c9578063d052ec0f14610275578063db2e21bc1461023a578063dd62ed3e146101ea578063ece0e577146101715763f27c2ba01461011a575f61000f565b3461016d57602036600319011261016d5760606001600160a01b0361013d610ad6565b16805f52600760205260405f2054905f52600560205260405f205460405191801515835260208301526040820152f35b5f80fd5b3461016d57606036600319011261016d5760243567ffffffffffffffff811161016d576101a2903690600401610ba6565b6044359067ffffffffffffffff821161016d576101c661001a923690600401610ba6565b906101e26001600160a01b036101da610d0e565b163314610bc4565b600435610edf565b3461016d57604036600319011261016d57610203610ad6565b61020b610aec565b6001600160a01b039182165f908152600160209081526040808320949093168252928352819020549051908152f35b3461016d575f36600319011261016d575f8080804781811561026c575b3390f11561026157005b6040513d5f823e3d90fd5b506108fc610257565b3461016d575f36600319011261016d576102c5604051610296604082610b32565b600e81526d1b985d9ccb5b185d5b98da1c185960921b6020820152604051918291602083526020830190610ab2565b0390f35b3461016d57602036600319011261016d576001600160a01b036102ea610ad6565b165f526007602052602060405f2054604051908152f35b3461016d57606036600319011261016d5760243567ffffffffffffffff811161016d57610332903690600401610ba6565b6044359067ffffffffffffffff821161016d573660238301121561016d5761036761001a923690602481600401359101610b70565b61037a6001600160a01b036101da610d0e565b60405191610389602084610b32565b5f8352600435610d84565b3461016d57602036600319011261016d576001600160a01b036103b5610ad6565b165f526005602052602060405f2054604051908152f35b3461016d57604036600319011261016d576103f26103e8610ad6565b6024359033610c51565b602060405160018152f35b3461016d575f36600319011261016d576040515f6004548060011c906001811680156104fb575b6020831081146104e7578285529081156104c35750600114610465575b6102c58361045181850382610b32565b604051918291602083526020830190610ab2565b91905060045f527f8a35acfbc15ff81a39ae7d344fd709f28e8600b4aa8c65c6b64bfe7fe36bd19b915f905b8082106104a957509091508101602001610451610441565b919260018160209254838588010152019101909291610491565b60ff191660208086019190915291151560051b840190910191506104519050610441565b634e487b7160e01b5f52602260045260245ffd5b91607f1691610424565b3461016d575f36600319011261016d576102c5604051610526604082610b32565b6005815264312e302e3160d81b6020820152604051918291602083526020830190610ab2565b3461016d57602036600319011261016d576001600160a01b0361056d610ad6565b165f525f602052602060405f2054604051908152f35b3461016d57602036600319011261016d576004355f526006602052602060018060a01b0360405f205416604051908152f35b3461016d575f36600319011261016d5760206040516b033b2e3c9fd0803ce80000008152f35b3461016d575f36600319011261016d57602060405160128152f35b3461016d575f36600319011261016d576020604051662386f26fc100008152f35b3461016d57606036600319011261016d57610630610ad6565b610638610aec565b6001600160a01b0382165f818152600160209081526040808320338452909152902054909260443592915f198110610676575b506103f29350610c51565b8381106106db5784156106c85733156106b5576103f2945f52600160205260405f2060018060a01b0333165f526020528360405f20910390558461066b565b634a1406b160e11b5f525f60045260245ffd5b63e602df0560e01b5f525f60045260245ffd5b8390637dc7a0d960e11b5f523360045260245260445260645ffd5b3461016d575f36600319011261016d576020600254604051908152f35b3461016d575f36600319011261016d57331561096957335f52600560205260405f205461095a57335f52600760205260405f205461094b5760405133602082015260208152610763604082610b32565b61076b610c21565b6001600160a01b0361077b610d0e565b169182156108f25761080e926107fc5f6020946040519687958694859363825a397d60e01b85526101406004860152600e6101448601526d1b985d9ccb5b185d5b98da1c185960921b6101648601526101806024860152600561018486015264312e302e3160d81b6101a48601526101c060448601526101c4850190610ab2565b83810360031901606485015290610ab2565b662386f26fc1000060848301528260a48301528260c48301523060e483015282610104830152600161012483015203925af1908115610261575f916108c0575b5060405161085b81610b02565b338152815f52600660205260405f209060018060a01b039051166bffffffffffffffffffffffff60a01b825416179055335f5260076020528060405f2055337fc519703873525524fd8b8723ddd729231f65f0ff4572aeb0d5c46ed7556b10305f80a3005b90506020813d6020116108ea575b816108db60209383610b32565b8101031261016d57518161084e565b3d91506108ce565b60405162461bcd60e51b815260206004820152602b60248201527f5461736b44697370617463682061646472657373206e6f742073657420666f7260448201526a103a3434b99031b430b4b760a91b6064820152608490fd5b6368fe66cd60e11b5f5260045ffd5b631bbdf5c560e31b5f5260045ffd5b63d92e233d60e01b5f5260045ffd5b3461016d57604036600319011261016d57610991610ad6565b6024359033156106c8576001600160a01b03169081156106b557335f52600160205260405f20825f526020528060405f20556040519081527f8c5be1e5ebec7d5bd14f71427d1e84f3dd0314c0f7b2291e5b200ac8c7c3b92560203392a3602060405160018152f35b3461016d575f36600319011261016d575f6003548060011c90600181168015610aa8575b6020831081146104e7578285529081156104c35750600114610a4a576102c58361045181850382610b32565b91905060035f527fc2575a0e9e593c00f959f8c92f12db2869c3395a3b0502d05e2516446f71f85b915f905b808210610a8e57509091508101602001610451610441565b919260018160209254838588010152019101909291610a76565b91607f1691610a1e565b805180835260209291819084018484015e5f828201840152601f01601f1916010190565b600435906001600160a01b038216820361016d57565b602435906001600160a01b038216820361016d57565b6020810190811067ffffffffffffffff821117610b1e57604052565b634e487b7160e01b5f52604160045260245ffd5b90601f8019910116810190811067ffffffffffffffff821117610b1e57604052565b67ffffffffffffffff8111610b1e57601f01601f191660200190565b929192610b7c82610b54565b91610b8a6040519384610b32565b82948184528183011161016d578281602093845f960137010152565b9080601f8301121561016d57816020610bc193359101610b70565b90565b15610bcb57565b60405162461bcd60e51b815260206004820152602860248201527f4f6e6c79205461736b44697370617463682063616e2063616c6c207468697320604482015267333ab731ba34b7b760c11b6064820152608490fd5b60405190610c30604083610b32565b601282527133b2ba2a37b5b2b720b63637b1b0ba34b7b760711b6020830152565b6001600160a01b0316908115610cfb576001600160a01b0316918215610ce857815f525f60205260405f2054818110610ccf57817fddf252ad1be2c89b69c2b068fc378daa952ba7f163c4a11628f55a4df523b3ef92602092855f525f84520360405f2055845f525f825260405f20818154019055604051908152a3565b8263391434e360e21b5f5260045260245260445260645ffd5b63ec442f0560e01b5f525f60045260245ffd5b634b637e8f60e11b5f525f60045260245ffd5b62014a344614610d1c575f90565b736f9cfe33a376124237576d36b2bad4f56c875db190565b929192610d4082610b54565b91610d4e6040519384610b32565b82948184528183011161016d578281602093845f96015e010152565b9080601f8301121561016d578151610bc192602001610d34565b9092919260208151910120610d97610c21565b6020815191012014610ddb5760405162461bcd60e51b815260206004820152601060248201526f2ab735b737bbb710333ab731ba34b7b760811b6044820152606490fd5b82518301926040816020860195031261016d57602081015167ffffffffffffffff811161016d57846020610e1192840101610d6a565b9360408201519167ffffffffffffffff831161016d57610e349201602001610d6a565b805181016060826020830192031261016d57602082015167ffffffffffffffff811161016d57820181603f8201121561016d57818160406020610e7a9401519101610d34565b5060408201519167ffffffffffffffff831161016d57610e9d9201602001610d6a565b9260208180518101031261016d57602001516001600160a01b0381160361016d576020835193818082019586920101031261016d57610edd92519061111e565b565b919060208151910120610ef0610c21565b6020815191012014610f345760405162461bcd60e51b815260206004820152601060248201526f2ab735b737bbb710333ab731ba34b7b760811b6044820152606490fd5b610edd91610fcb565b91908201809211610f4a57565b634e487b7160e01b5f52601160045260245ffd5b7fddf252ad1be2c89b69c2b068fc378daa952ba7f163c4a11628f55a4df523b3ef60205f92610f8f85600254610f3d565b6002556001600160a01b03169384158414610fb65780600254036002555b604051908152a3565b84845283825260408420818154019055610fad565b90815f52600660205260405f209160405192610fe684610b02565b546001600160a01b0390811684525f918252600660209081526040808420849055855190921683526007905281205580516110e657506b033b2e3c9fd0803ce80000006002541161108557516001600160a01b03168015610ce85761104b5f82610f5e565b805f5260056020525f60408120557f2c792545d3089a03225d2e82b898e2745c0fc817a42f2bed873fc3620e17bc4860206040515f8152a2565b60018060a01b039051165f51602061127a5f395f51905f52608060405160208152602760208201527f416c6c6f636174696f6e20657863656564732072656d61696e696e67206d617860408201526620737570706c7960c81b6060820152a2565b905160405160208082526001600160a01b03909216925f51602061127a5f395f51905f5292829161111991830190610ab2565b0390a2565b9091815f52600660205260405f20916040519261113a84610b02565b546001600160a01b0390811684525f9182526006602090815260408084208490558551909216835260079052812055805161124657506b033b2e3c9fd0803ce800000061118983600254610f3d565b116111e357516001600160a01b0316908115610ce8576020816111cd7f2c792545d3089a03225d2e82b898e2745c0fc817a42f2bed873fc3620e17bc489385610f5e565b835f52600582528060405f2055604051908152a2565b905060018060a01b039051165f51602061127a5f395f51905f52608060405160208152602760208201527f416c6c6f636174696f6e20657863656564732072656d61696e696e67206d617860408201526620737570706c7960c81b6060820152a2565b91506111195f51602061127a5f395f51905f529160018060a01b0390511692604051918291602083526020830190610ab256fec2666842f154d36ee78d124b5c9e84ef9ab3db7262e797126eca76735604dabaa26469706673582212203a1abef4f7aa2447ce3c17f4b43573441484a7998aa4274b25e25cf94750d21764736f6c634300081c0033","linkReferences":{}},"methodIdentifiers":{"ALLOCATION_CHECK_STAKE()":"2820e7d9","MAX_SUPPLY()":"32cb6b0c","PACKAGE_NAME()":"d052ec0f","PACKAGE_VERSION()":"93c44847","activeMintChecks(address)":"caa0cc20","allowance(address,address)":"dd62ed3e","approve(address,uint256)":"095ea7b3","balanceOf(address)":"70a08231","decimals()":"313ce567","emergencyWithdraw()":"db2e21bc","getMintStatus(address)":"f27c2ba0","getUserMinted(address)":"a9709099","mint()":"1249c58b","minted(address)":"1e7269c5","name()":"06fdde03","onNavsError(uint256,string,string)":"ece0e577","onNavsResult(uint256,string,bytes)":"a97ca152","pendingMints(uint256)":"63900ca6","symbol()":"95d89b41","totalSupply()":"18160ddd","transfer(address,uint256)":"a9059cbb","transferFrom(address,address,uint256)":"23b872dd"},"id":0}